:020000000B28CB
:10000800DE00030E8312A2000A08A3007F2B0C282F
:1000180083134A3084005A30D923830113282030AF
:1000280083169100953083129F00103083169F002D
:100038000730831299000E3083168700013085003F
:100048000130960088308B008312D801D901D6017F
:10005800D701071D302831283B286430CE000030F6
:10006800CF006430D2000030D30087167728CE0145
:10007800CF01C22183124008D3003F08D200643068
:10008800AA000030AB005308A5005208A400643051
:10009800A6000030A700B32383122508AD0024086A
:1000A800AC00692283122B08CD002A08CC006430EA
:1000B800AA000030AB005308A5005208A40019306C
:1000C800A6000030A700B32383122508AD0024083A
:1000D800AC00692283122A084B3ED2002B08031871
:1000E800013E003ED3005908803ADF0080305F02AD
:1000F800031D802864305802031C83288428EC28B8
:100108008312D801D901D601D701C2218312400830
:10011800D3003F08D2006430AA000030AB00530877
:10012800A5005208A4006430A6000030A700B3233D
:1001380083122508AD002408AC00692283122B081D
:10014800CD002A08CC006430AA000030AB00530868
:10015800A5005208A4001930A6000030A700B32358
:1001680083122508AD002408AC00692283122A08EE
:100178004B3ED2002B080318013E003ED300071D5A
:10018800C628C728EA285308803AC9004F08803A89
:100198004902031DD1284E0852020318D428D52835
:1001A800E22883124F08D3004E08D200EC30CE0765
:1001B8000318CF0AFF30CF078716E6288312CE012F
:1001C800CF018712CF1FE928EA28EC28CE01CF01FA
:1001D80083124D08803ADF0080305F02031DF62845
:1001E80014304C020318F928FA280E2983124D08F6
:1001F800803ADF0080305F02031D042901304C0281
:10020800031C072908290E2914308312CC0000305A
:10021800CD002F2983124D08803ADF0080305F021D
:10022800031D182951304C02031C1B291C292F2996
:1002380083124D08803ADF0080305F02031D2629B3
:1002480064304C02031829292A292F295030831297
:10025800CC000030CD0083125908803AC9004D08FF
:10026800803A4902031D3A294C085802031C3D29CB
:100278003E29412983120712432983120716871939
:100288004629472976296430AA000030AB00530874
:10029800A5005208A4006430A6000030A700B323CC
:1002A80083122508AD002408AC00692283122B08AC
:1002B800D1002A08D0005908803AC9005108803A6C
:1002C8004902031D692950085802031C6C296D292D
:1002D8007329FE308312CA05FF30CB0577288312B5
:1002E8004A1477285908803ADF0080305F02031DDE
:1002F8007F2901305802031C82298329B2298312DD
:100308005908AB005808AA005708A5005608A400C9
:100318006430A6000030A700B32383122508AD007F
:100328002408AC00692283122B08D1002A08D000C7
:100338005308803AC9005108803A4902031DA6298A
:1003480050085202031CA929AA296D2983125208B0
:100358005304031DB029B12973296D298312530849
:10036800803ADF0080305F02031DBC290130520251
:10037800031CBF29C0296D2973290B2883129F14D8
:100388009F18C729C829C4291E08C100C2014108ED
:10039800C200C10183161E0883124107C500420826
:1003A8000318420AC600C701C61BC7034708C8008E
:1003B8004808031DED294708031DED2901304602B1
:1003C800031DEA29F5304502031DEA290318ED2922
:1003D800EE29F82900308312C8000030C700003029
:1003E800C6000030C500382A83124808031D0B2AAE
:1003F8004708031D0B2A03304602031D072A203035
:100408004502031D072A031C0A2A0B2A152A003055
:100418008312C8000030C7000130C6002C30C50068
:10042800382A0C308312C100FE30C200FF30C300EE
:10043800FF30C4004508C10746080318460F252A9F
:10044800262AC20747080318470F2B2A2C2AC30756
:1004580048080318480AC4074408C8004308C700E6
:100468004208C6004108C5000030B4000030B3009F
:100478000130B2002C30B1004808A7004708A60098
:100488004608A5004508A4000030AB000030AA00CB
:100498000030A9006430A800382383122708B80068
:1004A8002608B7002508B6002408B500D122831213
:1004B8003408C8003308C7003208C6003108C50030
:1004C8004608C0004508BF0008008312B001AB1FF2
:1004D8006E2A6F2A762AAA09AB09AA0A0319AB0A57
:1004E800B001B00AAD1F792A7A2A832AAC09AD096E
:1004F800AC0A0319AD0A0130AE002E08B006B101EE
:10050800B2012A082B0403198A2A8B2AC22AAF01AE
:10051800AF0A992A01300310AA0DAB0DFF3E031D47
:100528008F2A0130AE002E08AF07AB1F9C2A9D2AE8
:100538008E2A01300310B10DB20DFF3E031D9E2A15
:100548002B082D02031DAA2A2A082C02031CAD2AF7
:10055800AE2AB52A2A08AC022B08031CAD03AD024B
:10056800311401300310AB0CAA0CFF3E031DB62A50
:100578000130AF02031DC12AC22A9D2A300803197F
:10058800C62AC72ACC2AB109B209B10A0319B20A84
:100598003208AB003108AA00080000308312BD0001
:1005A8000030BC000030BB000030BA00340833040F
:1005B800320431040319E12AE22A2F2BBE01BE0AB4
:1005C800F22A0130B9000310B10DB20DB30DB40D0C
:1005D800B90BE72A0130B9003908BE07B41FF52A5C
:1005E800F62AE52A0130B9000310BA0DBB0DBC0D7F
:1005F800BD0DB90BF82A34083802031D0D2B33083A
:100608003702031D0D2B32083602031D0D2B31084E
:100618003502031C102B112B202B3108B502320890
:10062800031C320FB6023308031C330FB702340819
:10063800031C340FB8023A1401300310B40CB30C85
:10064800B20CB10CFF3E031D212B0130BE02031D6D
:100658002E2B2F2BF62A3D08B4003C08B3003B088C
:10066800B2003A08B100080000308312B000003030
:10067800AF000030AE000030AD00241C442B452BE9
:100688005C2B2808AD07290803110318013E03193C
:100698004E2BAE072A0803110318013E0319552BE8
:1006A800AF072B0803110318013E03195C2BB00791
:1006B8000130AC000310A80DA90DAA0DAB0DAC0BB1
:1006C8005E2B01300310A70CA60CA50CA40CFF3E52
:1006D800031D662B2708260425042404031D752BF7
:1006E800762B412B3008A7002F08A6002E08A5005E
:1006F8002D08A4000800031005180314003003187F
:100708000130A000A1012008D4002108D5000B1C4D
:100718008E2B8F2BAC2B8B1D922B932BAC2B0B1072
:100728004A18972B9A2B831207149C2B83120710B5
:100738000130D8070318D90A0030D9074A1CA52B5D
:10074800A62BAC2B0130D6070318D70A0030D707E1
:1007580023088A00220E8300DE0E5E0E0900831233
:10076800A801A901241CB92BBA2BC02B2608A8075D
:100778000318A90A2708A90701300310A60DA70D19
:10078800FF3E031DC12B01300310A50CA40CFF3E36
:10079800031DC82B24082504031DD32BD42BB62BEB
:1007A8002908A5002808A400080064008001840A1C
:0A07B8000406031900340406DA2BCE
:02400E00B23FBF
:00000001FF
